:020000040800F2
:10000000E0150020E1000008014D0008FD34000863
:1000100000000000000000000000000000000000E0
:1000200000000000000000000000000079580008F7
:100030000000000000000000034D0008D158000837
:10004000F3000008F3000008F3000008F3000008C4
:10005000F3000008F3000008F3000008F3000008B4
:1000600000000000F3000008F3000008F30000089F
:10007000F3000008F3000008F3000008000000008F
:10008000E5590008F300000800000000F300000834
:10009000F3000008F3000008F3000008F300000874
:1000A000F3000008F3000008F3000008995F00085F
:1000B000E9600008000000000000000000000000EF
:1000C000F300000800000000F30000080348854624
:1000D00000F0D2FC004800476D880008E0150020C1
:1000E0000448804704480047FEE7FEE7FEE7FEE7D6
:1000F000FEE7FEE7DD580008CD0000080048704725
:1001000090A0000810B50446FFF7F8FF0068005DF6
:10011000C007C00F10BD03460B439B0703D009E087
:1001200008C9121F08C0042AFAD203E00B78037032
:10013000401C491C521EF9D27047D2B201E0027035
:10014000401C491EFBD270470022F6E710B513464B
:100150000A4604461946FFF7F0FF204610BD30B5A9
:1001600005462A460B4610781C78521C5B1C00285A
:1001700001D0A042F7D0002C03D0002802D06D1C83
:10018000EFE7284630BD421C0178401C0029FBD116
:10019000801A704703460A780270401C491C002AE6
:1001A000F9D118467047000070B5104D002800D1F5
:1001B0002868002414E00A4602E09E4203D0521C44
:1001C0001378002BF9D1DAB2224307D0002B06D0E6
:1001D000002C04D000210170401C04E00446401CA7
:1001E0000678002EE7D12860204670BD0000002070
:1001F000F8B502464A40D40F42004B0052085B0853
:100200009A4202D20246084611464A0023D0C30D44
:100210004A00DDB2120EAD1A202D35DA4902012650
:10022000490AF6058A19002C00D0524220214F1BA2
:100230001146B9402A411018C20D9A4221D0002C13
:1002400017D0012D08DCDA05801AD20F8019D207E9
:10025000DBB200F045FBF8BDDA05801A012340004F
:100260001B06C01880185A428018CA0F1043490054
:1002700007E04908C2071143DA05801A80194008CF
:10028000801800F025FBF8BD61000122511A001B07
:10029000F7E70122D2075140AAE70122D2075040D6
:1002A000A6E7024670B54A40D30FDB0740002DD0C9
:1002B0004A002AD0010E140E000212020919400A47
:1002C000520A8418E50104465443000A120A2E0417
:1002D0005043A4194219200CC543AA18120C012539
:1002E000AD03521C521912047F39240400D0521C51
:1002F000104301D44000491EC2B20C06C0092018A8
:10030000401C4008802A02D003E0002070BD400855
:100310004000002900DA0020184370BDF0B5074600
:100320000846584087B0C00F049048000E46590058
:1003300040084908BC1A884105D2384631461E4655
:1003400017460B4602465800400810434CD0300D6B
:10035000039040055900400D490D0590401A029048
:10036000402872DA18030121000B090508430190A7
:1003700004980092002805D001995242002088413B
:1003800000920190029840210A1A0199009800F009
:1003900011FA05460C466B4607CB00F02CFAC01943
:1003A0007141039A0E0D0023D71756401A467A4022
:1003B000164344D0049A002A2DD0029A012A039AA7
:1003C00015DC1205C01A914101263605001C714149
:1003D000D20F059ED2070093019202962A46234629
:1003E00000F0C4FA07B0F0BD38463146FAE716050A
:1003F000224A0F46B218C01AB74101210905001C54
:100400004F4100187F41114618187941E20F1043FF
:100410006D19644113E0E2076D0815436408C207D3
:100420001443039A01261205C01A91413605001C97
:100430007141CE07400830434908C01851412A464F
:10044000234600F086FACDE7FFE70498012240003A
:10045000C117121A00238B4104983146C417381A69
:10046000A141EEE730B40124E407634030BC55E716
:1004700030B40124E407614030BC4FE70000E0FFE6
:10048000F0B51FB488B00B99099800244840099929
:10049000C00F490049080991C0070B990090490015
:1004A00049080B9109990898A64608431CD00B9956
:1004B0000A98084318D0099801244000420D4800CA
:1004C000410D099824050003000B204309900B9867
:1004D0000003000B20430B9050181C4940180022C9
:1004E00001901446104605E0002001460DB0F0BD15
:1004F000032801DA034600E003239C46C11A0AAE32
:100500000AE05F0008ADED5B4F00F75B7D4300271D
:10051000AA187C41491C5B1E6145F2DD410004AB19
:100520005A522104120C0A43240C401C0828DFDB19
:10053000019802900099704601910090059B049AE1
:100540000799069800F012FAD0E700000DFCFFFFB3
:10055000F0B50C465C4085B0E40FE40703944C0012
:100560000026640859009446490802460296224330
:1005700021D062460A431ED06200570D4A000E0386
:100580002303550D012402462C492405781B1B0B1F
:10059000360B401823432643614600901C46501AF0
:1005A000B44103D30098401C009002E092180098D8
:1005B0005B41002803DA0020014605B0F0BD0020B1
:1005C000012109050746864611E064461D46141BB5
:1005D000B54106D36546521BB341744607430C43ED
:1005E000A646CD0740084908284392185B410546B6
:1005F0000D43EAD11046184313D0604619465040C7
:100600007140084306D06046101AB34106D2012259
:10061000002306E000220123DB0702E00122D2438F
:100620005310009874460105381C6141029C039DDB
:100630000019694100F08DF9BFE70000FD030000DB
:10064000C217C10F504010B54018CA0796230021A9
:1006500000F046F910BD00000EB5C217C10F5040A2
:10066000CA0740180021054B0293019200910A46E7
:100670000B4600F07BF903B000BD0000330400001E
:1006800070B5CD0F4A0009030123090B1B0519435F
:100690000B4BED070024520D9A4201DA002070BD89
:1006A000074B34339A4203DC9A1A00F093F802E0C5
:1006B0000449511888402C43F1D0404270BD0000DD
:1006C000FF030000CDFBFFFFC20FD2074000400830
:1006D0000BD0C10D0723DB01C91840020905400AF0
:1006E0001143C2084007114370470020014670477C
:1006F000CB0FDB07490010B5490802460A4307D073
:100700000A0D07240903E401090B121B002A01DC6E
:10071000002010BDC900440F0C43C100E018D205F1
:10072000801800F0D5F810BD30B50B46014600200A
:100730002022012409E00D46D5409D4205D31D46E7
:100740009540491B2546954040191546521E002DDF
:10075000F1DC30BDF0B51FB40646002082B005467E
:100760004024019100901BE0019922460F4630463B
:1007700000F030F8049A059B801A994110D3104676
:100780001946224600F016F8361A8F410197224684
:1007900001200021009F00F00DF838184D41009015
:1007A0002046641E0028DFDC019B00982946324663
:1007B00007B0F0BD10B5202A04DB0146203A914075
:1007C000002010BD914020239C1A0346E3401943AA
:1007D000904010BD10B5202A04DB0846203AD040D6
:1007E000002110BD0B46D340D0402024A21A9140D6
:1007F0000843194610BD10B5202A06DBCB17084662
:10080000203A1041C1170B4306E00B461341D0407C
:100810002024A21A91400843194610BD0FB400B518
:1008200089B00A460DA9009100230C99002ACB60DB
:10083000234B0693234B079301D0042300E00023AE
:10084000214A0292214A0892019302466B460020F7
:1008500000F0B3F909B008BC04B01847F0B585B092
:1008600007460020C04301901E46002015460C4656
:100870000091029104903B466A46314604A8FFF776
:10088000CDFF049902466018002D05D0002901D043
:10089000034600E023462B6000290ED0002A02DD2B
:1008A0000099814209D0001B019000943B466A46A2
:1008B0003146029404A8FFF7B1FF05B0F0BD000077
:1008C000110E0008310E0008FFFFFF7F0501000830
:1008D000002904DA401C490001D14008400070475B
:1008E00070B40024050C05D11024000402D10029A5
:1008F00021D01124050E01D100020834050F01D1C9
:100900000001241D850F01D18000A41C002801DBFB
:100910004000641C002908D020252E1B0D46F54000
:10092000A14000D001212943084301061B1B000AF6
:10093000DB1D02D5002070BC7047DB05181880183D
:100940000029F8DA401C4900F5D170BC400840008D
:10095000704710B5002B08DA0024401C6141921842
:100960005B411A4301D14008400010BDF0B51FB4EF
:1009700082B005460C0003D0084608F09BFE02E05A
:1009800008F098FE20300246009021462846FFF7E6
:1009900011FF049B059A04460F4618431143084370
:1009A00014D0184610431BD0009840210A1A18464C
:1009B0000599FFF70FFF05460E46009A0599049822
:1009C000FFF7F8FE084305D0012004E02046394631
:1009D00007B0F0BD0020C11705430E432C43374339
:1009E00000990E986305401A7905E40A00220C4329
:1009F000FD0A0A3002D500200146E9E70105101979
:100A000069410C9C0D9D00196941FFF7A2FFDFE7CA
:100A10004A0009030123090B1B0519430A4B10B5B2
:100A2000520D9A4202DA0020014610BD064B3433C3
:100A30009A4203DC9A1AFFF7CDFE10BD034BD21881
:100A4000FFF7B8FE10BD0000FF030000CDFBFFFF65
:100A500010B5002904DB0124E40740428C41214603
:100A6000002B04DB1C460123DB075242A3419942C1
:100A700000D1904210BD0000064C0125064E05E055
:100A8000E36807CC2B430C3C98471034B442F7D3AF
:100A9000FFF720FBF4B3000814B40008FFB5087892
:100AA00089B01546FF2805D0491C2D2804D0002206
:100AB000002407E000240BE00122F9E70A235C434D
:100AC0000419491C0878FF28F8D1002A00D0644294
:100AD000002004902A7801462D2A01D02B2A0FD11C
:100AE0006D1C2D2A02D00022049209E00122FBE7AE
:100AF00000260A2233466D1C00F0ACF9381871410B
:100B00002F78FF2FF4D10C9AA218069202460A43BE
:100B100004D0FF23069A9133DA4205DA00210998BE
:100B20000A4606C00DB0F0BD0024B74AB54D2646B2
:100B3000079200F0CDF9029006980391002801DA9F
:100B4000474200E0074639050020AF4A001C5141EA
:100B50000191009012E0F80707D022462B4630465C
:100B60000799FFF78DFC0646079122462B46104653
:100B70001946FFF785FC04460D467F10002FEAD189
:100B80000698019B0028009A0399029806DAFFF75D
:100B9000DFFC3246079BFFF7DBFC05E0FFF770FC4C
:100BA0003246079BFFF76CFC049A002A02D0012210
:100BB000D2075140099A03C2B4E7FFB591B00020B3
:100BC00009900025ED432E209E685C681F46019029
:100BD000B9696D1C129888470090396A88470028C7
:100BE000F6D10098401C0AD00D20C0018443002E8D
:100BF00012DD00982B2809D02D280DD103E000200C
:100C0000C04315B0F0BD012080020443B9696D1CDA
:100C100012988847761E009003A9600501D52D2003
:100C200000E02B206A461073491C0CA80F9102901B
:100C30000AE0B9696D1C12988847009001204002B3
:100C400004431398761E0560002E02DD00983028BC
:100C5000EFD001990098884245D18020044308E0F4
:100C60000998401E09900120400204431399681C12
:100C70000860B9696D1C761E12988847009030286C
:100C8000EED030E00199884205D1200603D48020BF
:100C90000443761E1DE0009808F0FAFD002825D0D8
:100CA000012149020C43009807AA0F9903323038FA
:100CB000761E914208D208700F98401C0F902006B3
:100CC00007D50998401E03E0200602D40998401C6D
:100CD0000990A00502D51399681C0860B9696D1CBC
:100CE000129888470090002ECCDC59E0002E57DD8A
:100CF0000098652801D0452852D1A00550D5032081
:100D000000028443B9696D1C761E129888470090D2
:100D1000002E0CDD2B2804D02D2808D1FF20013017
:100D20000443B9696D1C12988847761E0090E0054F
:100D300001D52D2100E02B21029801700298401C62
:100D40000290019025E00120400204430EA9029880
:100D50000131761E88420ED2009802993038000682
:100D6000000E087003D10299019881420AD90298B5
:100D7000401C029006E0E00501D5244801E023482C
:100D800040420990B9696D1C1298884700901398E9
:100D90000560002E04DD009808F07AFD0028D2D10D
:100DA000F969129888470F99FF200870029903AAE1
:100DB000087000200A900B900CA90AA8099BFFF765
:100DC0006DFEA00502D40120C0431AE7242004428E
:100DD00009D0E00713D138680B9A0A99031D3B60CC
:100DE000006806C00BE00B990A98FFF781FC0146EA
:100DF000E00704D13868021D3A60006801602846A7
:100E0000FFE60000000014400000F03FF1D8FFFFB3
:100E10004268002A08D001680B78491C002B03D0D7
:100E2000521E06C0184670470121C160881E7047D7
:100E30004268002A0BD0C3680168002B07D1836881
:100E40008B4204D0491E521C06C00020704700206F
:100E5000C0437047F0B51FB486B0002000900190E9
:100E600002900698069980B204900798090C020433
:100E70000014114307900027089D099806913E46EB
:100E80003C4603900398A9B20204000C0390049816
:100E90002D0C1543484300212246FFF78BFCC71950
:100EA000714110340E46402CECDB3846029AFFF7B5
:100EB00081FC009A019B8018009059410298019191
:100EC000103002904028CCDB00980BB0F0BD000041
:100ED0000EB5054A02920022009213460192FFF7D6
:100EE00045FD03B000BD00003304000080B582B0B2
:100EF0000920C0060321002201230192009307F07C
:100F000038F80220009905F07FFF0720410400987F
:100F100005F062FE019805F0F7FD0098009905F0D4
:100F2000BFFD05220198019905F09EFE00980099E9
:100F300005F00EFE05F0FEFD009800F0A7FA05F0A2
:100F400093FD009805F03EFF02B080BD81B00146E0
:100F50006A4610800E480088002809D1FFE70C4837
:100F60004088002804D1FFE7009809494880FFE73E
:100F700007484188018001886A461288521A0A236C
:100F800092FBF3F289184180408801B07047C04657
:100F900030000020B0B581B001466A46107000985C
:100FA000074A40F20043D45A651CD5521055D05A16
:100FB0000023135403480723135401B0B0BDC046A7
:100FC000340000200204000080B584B00920C0066F
:100FD00000210122102303900291019206F0C9FF23
:100FE000802303980299019A06F0C3FF20230398F7
:100FF0000299019A06F0BDFF402303980299019AD5
:1010000006F0B7FF9B483C21405C052804D1FFE770
:101010009548052101730EE096483C21405C042868
:1010200008D1FFE793483F21425C8F4B5A73405CE5
:101030001873FFE7FFE78E489621018004B080BD5A
:1010400010B592B00920C00610210D9006F07CFF6B
:1010500011A9087080200D9A0C9010460C9B0B91E2
:10106000194606F071FF10A9087020210D9806F0AE
:101070006BFF0FA9087040210D9806F065FF0EA9BF
:1010800008700B9801786B4A1278914221D0FFE7E3
:10109000119868490870087800280BD1FFE705F01F
:1010A00011FF6749654B02220A9010460A9A05F023
:1010B0002BFF0DE005F006FF5F49604B022209900F
:1010C0001046099A05F020FF012005F08FF9FFE78F
:1010D000FFE710A800785B490978884223D0FFE732
:1010E000109858490870087800280BD1FFE705F0E0
:1010F000E9FE5649514B022208901046089A05F025
:1011000003FF0FE005F0DEFE4F49FA4B0222079085
:101110001046079C0692224605F0F6FE069805F05A
:1011200065F9FFE7FFE70FA8007849490978884289
:1011300021D0FFE70F9846490870087800280BD1A6
:10114000FFE705F0BFFE4449EA4B02220590104636
:10115000059A05F0D9FE0DE005F0B4FE3D49E54BDA
:10116000022204901046049A05F0CEFE032005F0FA
:101170003DF9FFE7FFE70EA8007838490978884273
:1011800021D0FFE70E9835490870087800280BD168
:10119000FFE705F097FE3349D64B02220390104635
:1011A000039A05F0B1FE0DE005F08CFE2C49D14B01
:1011B000022202901046029A05F0A6FE042005F0D5
:1011C00015F9FFE7FFE72848807B002819D0FFE7E3
:1011D0002548817B491E8173807B002810D1FFE761
:1011E00005F070FE2149C34B022201901046019A7E
:1011F00005F08AFE1C48007B002103F0FFF9FFE7A1
:10120000FFE71B480088002811D0FFE71848018835
:10121000491E01800088002808D1FFE715482421D5
:10122000002242544F2105224254FFE7FFE712B04B
:1012300010BDC0461F00002004A6000805A300083A
:101240002BA600081C000020B1A50008DAA50008A4
:101250001D00002053A600087CA600081E000020E8
:10126000D1A60008FAA60008B90D0020A6A600081D
:10127000841100208811002086B00A46059004A839
:1012800001702248019003A800210180FFE703A814
:10129000008800B204A90978884230DAFFE7019893
:1012A000059903AA128812B2895C4840019002A8ED
:1012B00008210180FFE702A8008800B2012818DB9E
:1012C000FFE701A80078C007002806D0FFE70198D3
:1012D00040100F494840009003E0019840100090F2
:1012E000FFE700980190FFE70298401E02A90880DE
:1012F000E1E7FFE70398401C03A90880C7E701A8BE
:1013000000880249484006B07047C046FFFF000011
:1013100008840000B0B58EB01C4615460C900B91A9
:101320000AA8027009A90B7000780C9A0491114662
:101330000394029501F026FA08A908800498007821
:101340000C9A0191114601F01DFA07A9088005A821
:10135000002101800198018809B2491C002907D0A9
:10136000FFE707A8008800B2401C002804D1FFE76F
:101370000DA80021017037E007A8008800B208A975
:10138000098809B2401A012804DCFFE70DA80021F2
:10139000017029E00898401C06A90880FFE706A80C
:1013A000008800B207A9098809B2884212DAFFE76B
:1013B0000C9806A9098809B2405C0B9905AA138804
:1013C0001BB25C1C1480C854FFE70698401C06A999
:1013D0000880E4E70B9805A9098809B20022425465
:1013E0000DA801210170FFE70DA800780EB0B0BD77
:1013F000B0B581B001466A46107000981B4A40F2B1
:101400000043D45A651CD5521055D05A984206D183
:10141000FFE7164840F2004100224252FFE713481E
:1014200040F20041415A002242541149962242544E
:1014300001B0B0BD7047000080B50C480C49405C5D
:10144000002812D0FFE709480949425C521E425465
:10145000405C002808D1FFE703F014FF034840F286
:10146000004100224252FFE7FFE780BD4004002018
:101470000204000020480088012805DBFFE71E4821
:101480000188491E0180FFE77047C04610B586B04D
:10149000014605AA10800491039205F013FD13493B
:1014A0000968039A1388019300911149114B022492
:1014B00002902046029A05F027FD05980E49088003
:1014C000FFE70D48008800280ED0FFE70A48008893
:1014D0000A4941430A4808180A49884203D8FFE7E5
:1014E00006F03AF8FFE7ECE706B010BD70100020F8
:1014F000EAA0000805A30008DC0D0020CDCCCCCC70
:1015000099999919323333337047000080B582B00E
:1015100014490420019005F0F7FC1348019900904C
:101520000846009905F0F0FC1049019805F0ECFC24
:101530000F49019805F0E8FC0E49019805F0E4FC1C
:101540000D490E4A0123019805F0DEFC0C490D4AB5
:101550000D4B019805F0D8FC0198009905F0D4FCDA
:1015600002B080BD90A50008F0A40008D0A000083B
:10157000F1A4000858A5000880A50008A8A5000847
:101580006CA500089CA5000893A50008F0B5A7B0BD
:1015900026A800210170E9490A463C32927825AB21
:1015A0001A70E74AC8231D9010461C9119461B92D9
:1015B000FEF7CAFD29201C990A5C30200B5C486BA1
:1015C0000090E0491B9808F061F81D9908703C20D4
:1015D0001C9A105C00286AD1FFE7D8484E21405C75
:1015E00006281A9061D81A98810001A251188F46D6
:1015F00000F04AB800F059B800F057B800F055B8FC
:1016000000F004B800F01EB800F02DB826A801784C
:10161000CB4A5118C94AD36A40F2E834B3FBF4F319
:10162000CF4C19900846214618921A4608F02EF819
:1016300026990818199908702A20189A105C25AB69
:10164000187033E026A80178BD4A5118C04AC34B30
:101650001790084611461A4608F018F826990818F7
:101660001799087022E026A80178B54A5118B84A9F
:10167000B94B1690084611461A4608F007F8269905
:1016800008181699087011E026A80178AC4A51187C
:10169000AF4AB04B1590084611461A4607F0F6FFC0
:1016A000269908181599087000E0FFE729E026A898
:1016B0000178A34A5118A44A14900846114607F02D
:1016C000E5FF2699081814990870FD483C22805CB3
:1016D000032815D1FFE726A80178994A5118F84A3E
:1016E000D26A40F2E833B2FBF3F2984B139008460B
:1016F000194607F0CBFF2699081813990870FFE7E1
:10170000FFE726A801788E4A511825AB1B78954C27
:1017100012900846214611921A4607F0B7FF269903
:101720000818129908700878119A1018249001F07E
:10173000BFF8002823D0FFE726A80178804A511877
:1017400022AA109010460F9101F09CF82398FEF702
:10175000BBFF20AA0E9010460D9101F093F820983F
:10176000FEF7B2FF0191009080490F980E9A0D9BF1
:1017700007F08CFF269908181099087010E026A829
:1017800001786F4A5118724A774B0C9008461146FF
:101790001A4607F07BFF269908180C990870FFE796
:1017A0001FA800210170FFE71FA800781D2848DC52
:1017B000FFE71FA80078052141436D4840180079D4
:1017C000002838D0FFE726A801785D4A51181FAAE3
:1017D0001378052425465D43654B5E195D5D76787B
:1017E000644F0B90084639460A922A4609933346BD
:1017F000089407F04BFF269908180B9908700A986F
:101800000278089B5343099AD31800241C7103786B
:10181000089D5D4354550378089D5D4353195C70E2
:101820000378052B05DCFFE726A80078A12801DB5B
:10183000FFE706E0FFE7FFE71F98401C1FA90870BD
:10184000B2E726A801783E4A51184B4B0124079075
:101850000846194606922246059407F017FF269976
:1018600008180799087009780698FFF705FD1EA962
:10187000088007980278069B98180A883F4907F065
:1018800005FF26990818079908700598069904F02D
:10189000DFFA8B483821405C00282BD0FFE73B481B
:1018A00001784A1C02701E2923DBFFE7374800211C
:1018B0000170049105F006FB3549334B0222039079
:1018C0001046039A05F020FB7D483821049A4254C3
:1018D0002B48032101702F4801684B1C036040F224
:1018E0009110814204D3FFE72A4800210160FFE7FD
:1018F000FFE720E02248007800281BD0FFE72048BF
:101900000178491E01700078002812D1FFE705F028
:10191000D9FA1C49EA4B022202901046029A05F0BD
:10192000F3FA674838210122425418480021017017
:10193000FFE7FFE7FFE727B0F0BDC04688110020B2
:10194000720F0020A8A200089BA20008F3A20008C2
:1019500053A2000879A200088AA2000869A2000820
:10196000E5A20008D1A2000856A20008C2A2000801
:101970006C0C0020FCA20008D9A200080FA10008EE
:10198000700F0020F1A1000805A30008710F0020CE
:10199000ABA100083C10002080B50C480C49405C0D
:1019A000002812D0FFE709480949425C521E425400
:1019B000405C002808D1FFE703F0A4F9034840F297
:1019C000004100224252FFE7FFE780BD34000020C3
:1019D0000204000080B584B000200190882000F04F
:1019E00067FA03A908808920009100F061FA02A932
:1019F0000880009802880B881649042005F084FAB4
:101A000000980188C74A914218D0FFE702A80088D1
:101A1000C449884212D0FFE703A801880F22114071
:101A2000018002A90A780A80008800020988084318
:101A300001900198084941430191FFE70198074946
:101A4000B0FBF1F20649042005F05EFA019804B0FB
:101A500080BDC04690A7000850C3000010270000BA
:101A600005A8000810B586B005A8FF210170E62082
:101A700000F01EFA04A908800888AA49884207D005
:101A8000FFE704A800887F21084005A90870FFE748
:101A900005A801786E390A4A516301780A466E3A00
:101AA000084B04240390204602911946029B0192A0
:101AB0001A46019B05F028FA0398007806B010BD7D
:101AC00088110020C2A7000880B584B003A8FF21B8
:101AD0000170E22000F0ECF902A908800888914921
:101AE000884207D0FFE702A800883F21084003A9E9
:101AF0000870FFE703A80278044904230190184600
:101B000005F002FA0198007804B080BDDEA7000855
:101B100080B588B06448052149040160FFE7634847
:101B2000634906F001FC002816D0FFE75E48016813
:101B30004A1E026000290ED1FFE705F0C3F9634990
:101B4000D04B042206901046069A05F0DDF907A84E
:101B500000210170A4E0E2E7544806F03DFC524841
:101B6000052149040160FFE7504840F2005106F0AA
:101B7000DBFB002816D1FFE74B4801684A1E0260D4
:101B800000290ED1FFE705F09DF94F49BD4B042216
:101B900005901046059A05F0B7F907A800210170D5
:101BA0007EE0E1E741486A21012206F0DAFB3E4887
:101BB000052149040160FFE73C483E4906F0B4FBBB
:101BC000002816D1FFE7384801684A1E0260002944
:101BD0000ED1FFE705F076F93A49AA4B04220490AA
:101BE0001046049A05F090F907A80021017057E00B
:101BF000E2E72E480021039006F04AFA2D490398A7
:101C000006F072FB039806F0F1FB27480521490412
:101C10000160FFE72548284906F086FB002816D119
:101C2000FFE7214801684A1E026000290ED1FFE744
:101C300005F048F92149934B042202901046029A7C
:101C400005F062F907A80021017029E0E2E71748D2
:101C500006F0CCFBFFE7154800688005002816D584
:101C6000FFE7114801684A1E026000290ED1FFE714
:101C700005F028F91149834B042201901046019A7E
:101C800005F042F907A80021017009E0E3E70748E1
:101C90000121009106F0FCF907A800990170FFE707
:101CA00007A8007808B080BD0C0000200054004058
:101CB0000106000001050000060500004EAC00080A
:101CC00005A300081BAB000880AA0008E7AC0008C9
:101CD00080B584B003A8FF2101700F2000F0E8F860
:101CE00002A9088008880F4988420ED0FFE702A8A1
:101CF0000088401CFEF7B0FC00220B4BFEF7C0FB37
:101D0000FEF7BEFC03A90870FFE703A802780749A5
:101D100004230190184605F0F7F80198007804B004
:101D200080BDC046FFFF000000000940F0A700088A
:101D3000B0B594B013A8002101700F9101F0FCFE22
:101D400012A80F990170FFE713A8007809282BDC6F
:101D5000FFE7FFF7DDFE12A90870087801280BD114
:101D6000FFE705F0AFF84849464B02220E901046B7
:101D70000E9A05F0C9F817E01398401C13A90870D3
:101D80000D9105F09FF80D990A7800923C493D4B62
:101D900003220C9010460C9A05F0B6F840F2F410AD
:101DA000FFF774FBFFE7CFE711A80021017005F0F2
:101DB00089F83649334B02220B9010460B9A05F0F6
:101DC000A3F802F0F5F800280BD0FFE705F07AF849
:101DD00030492C4B02220A9010460A9A05F094F8DA
:101DE0000AE005F06FF82A49264B042209901046B4
:101DF000099A05F089F8FFE705F064F82649FF4ADB
:101E0000022308901846089C07922246079D0693D5
:101E10002B4605F079F805F055F82049069A05900B
:101E20001046059A079B05F06FF802F099F911A981
:101E30000870087800280BD1FFE705F043F819492E
:101E4000EE4B042204901046049A05F05DF80AE077
:101E500005F038F81249E94B022203901046039A24
:101E600005F052F8FFE7002002F034F90E494C2249
:101E70000E4B8B520290184601F0D4FE14B0B0BD48
:101E80002DAD000805A30008F8A80008B5A80008B3
:101E900000AA0008DFA80008A7AD00081BAA0008D8
:101EA000DEAD00080EAE0008881100207616000096
:101EB00080B592B0014610AA10700FA800220270DF
:101EC000C448052252040260FFE7C348C34906F034
:101ED0002BFA00281AD0FFE7BE4801684A1E0260AC
:101EE000002912D1FFE704F0EDFFCA490191C14971
:101EF0000091C149C14B04220E9010460E9A05F084
:101F000003F811A80021018060E1DEE7B24806F085
:101F100063FAB048052149040160FFE7AE4840F28A
:101F2000005106F001FA00281BD1FFE7A94801681B
:101F30004A1E0260002913D1FFE704F0C3FF40F2FC
:101F4000D0610191AB490091AB49AC4B04220D909B
:101F500010460D9A04F0D8FF11A80021018035E148
:101F6000DCE70120C2439C486A2106F0FAF999484F
:101F7000052149040160FFE79748994906F0D4F923
:101F800000281AD1FFE7934801684A1E0260002921
:101F900012D1FFE704F096FF9D4901919549009108
:101FA0009549964B04220C9010460C9A04F0ACFF15
:101FB00011A80021018009E1DEE78748884906F081
:101FC00093F98448052149040160FFE78248854967
:101FD00006F0AAF901281AD0FFE77E4801684A1ED8
:101FE0000260002912D1FFE704F06CFF87490191DC
:101FF000804900918049814B04220B9010460B9A36
:1020000004F082FF11A800210180DFE0DEE77248C2
:102010000A9006F060F910A801780A9806F051F9C4
:102020006C48052149040160FFE76B486E4906F0E2
:102030007BF900281AD1FFE7664801684A1E026052
:10204000002912D1FFE704F03DFF6F490191694972
:1020500000916949694B042209901046099A04F0DD
:1020600053FF11A800210180B0E0DEE75A4806F0D6
:10207000B3F95848052149040160FFE7564840F28A
:10208000005106F051F900281AD1FFE751480168C4
:102090004A1E0260002912D1FFE704F013FF5949DC
:1020A0000191544900915449544B04220890104620
:1020B000089A04F029FF11A80021018086E0DDE7DD
:1020C00045486A210122079006F04BF90021079844
:1020D00005F0DEFF3F48052149040160FFE73E4867
:1020E0003F4906F021F900281AD1FFE73948016875
:1020F0004A1E0260002912D1FFE704F0E3FE4049C6
:1021000001913C4900913C49FC4B04220690104649
:10211000069A04F0F9FE11A80021018056E0DEE7DE
:102120002D482F49059006F0DFF8059806F05EF976
:102130002848052149040160FFE7264801684A1E36
:10214000026000290ED0FFE72348284906F0ECF88A
:10215000002806D0FFE7204806F0ACF80FA9087069
:1021600000E0EAE71B48052149040160FFE71A483F
:102170000068800500281AD5FFE7164801684A1E46
:102180000260002912D1FFE704F09CFE184901917A
:10219000184900911849D94B042204901046049A1A
:1021A00004F0B2FE11A8002101800FE0DFE70A4829
:1021B00001210390029105F06BFF0398029905F04D
:1021C0007EFF0FA8007811A90880FFE711A80088FA
:1021D00012B080BD0C000020005400400106000039
:1021E00001050000070500000205000006050000CB
:1021F0003907000018A8000846AA000805A300082F
:102200001C0700000B070000FD060000EC060000A4
:10221000DE060000C106000080B586B00590059876
:102220000549B0FBF1F0049004A8008801F0FAFC25
:10223000002006B080BDC0461027000010B588B051
:10224000014607AA10701078642804DBFFE707A88E
:1022500063210170FFE707A8017804900846FEF7A4
:10226000FBF90022104BFEF773F9FEF709FA06A9F5
:10227000087008780F2203901046039A02911146C5
:1022800000F052F905A9088004980278029B1B7897
:102290000C880094054C04200191214604F034FE82
:1022A0000198008808B010BD0000094075A700081B
:1022B00070B590B08F4801784A1C027006296CDB1B
:1022C000FFE78C480021017004F0FCFD8A498B4B2C
:1022D00002220D9010460D9A04F016FEFFF7F8FC4E
:1022E00087492A2288540C91FFF774FB0C99C86225
:1022F000FFF7EAFB29210C9A5054FFF7B3FB30217A
:102300000C9A5054DE20FFF7D3FD7E4904220B9037
:1023100010460B9A04F0F8FD3C200C99085C032849
:1023200006D0FFE776484E21405C042834D1FFE711
:102330007548007872492922895C88421ED1FFE7DE
:10234000724800786E493022895C884216D1FFE7D6
:102350006F4801784A1C027014290EDBFFE704F075
:10236000B1FD6C49654B04220A9010460A9A04F0AC
:10237000CBFD0F2003F02EFBFFE70CE06048292186
:10238000415C614A11703021405C604908706048CE
:1023900000210170FFE7FFE7FFE75F489621405CFF
:1023A00001284CDBFFE70FA800210170FFE70FA811
:1023B00000781D2842DCFFE70FA800780521414383
:1023C000554840188078002832D0FFE704F07AFDA5
:1023D0000FA90A7805231C4654434F4A1519145D6A
:1023E0006D78019500944F4CE14D022609903046DE
:1023F00008912146099C0792224606932B4604F039
:1024000083FD08980178069A4A4307998B18885CDF
:10241000597800F089F808990A78069B5343079A7F
:10242000D31800249C709623D45C641ED454FFE718
:10243000FFE70F98401C0FA90870B8E758E037482D
:102440009621405C012852DBFFE70EA800210170B5
:10245000FFE70EA800781D2848DCFFE70EA80078EB
:10246000052141432D484018C078002838D0FFE7A7
:1024700004F028FD0EA90A7805231C465443274A78
:10248000145D0094264CBA4D022605903046049106
:102490002146059C0392224602932B4604F034FD0C
:1024A00004980178029A4A430399885CFFF700FD7B
:1024B00004990A78029B5343039AD31858700878FA
:1024C000029B4343D0180023C3700878029B434308
:1024D000D018012303719620135C5B1E1354FFE791
:1024E000FFE70E98401C0EA90870B2E7FFE7FFE770
:1024F00010B070BD45080020CAAD000805A3000853
:1025000088110020B1A700084708002046080020D5
:102510004408002085A80008030D00206C0C002052
:1025200041A9000866A9000810B58AB00A4603460A
:1025300008AC207007A80170874805214904016094
:10254000FFE78648864905F0EFFE002816D0FFE732
:10255000814801684A1E026000290ED1FFE704F09D
:10256000B1FC8749824B042206901046069A04F07B
:10257000CBFC09A8A2490180EAE0E2E7774805F030
:102580002BFF7548052149040160FFE7734840F2BD
:10259000005105F0C9FE002816D1FFE76E4801681A
:1025A0004A1E026000290ED1FFE704F08BFC73493C
:1025B0006F4B042205901046059A04F0A5FC09A86B
:1025C0008F490180C4E0E1E70120C24363486A21EA
:1025D00005F0C7FE6048052149040160FFE75F4838
:1025E000604905F0A1FE002816D1FFE75A480168AE
:1025F0004A1E026000290ED1FFE704F063FC5E4929
:102600005B4B042204901046049A04F07DFC09A858
:102610007B4901809CE0E2E75048524905F064FEA6
:102620004D48052149040160FFE74C484E4905F03B
:102630007BFE002816D1FFE7474801684A1E02606A
:1026400000290ED1FFE704F03DFC4A49EB4B042280
:1026500003901046039A04F057FC09A868490180CA
:1026600076E0E2E708A801783C4805F02AFE3A48FF
:10267000052149040160FFE738483B4905F054FE55
:10268000002816D1FFE7344801684A1E026000297D
:102690000ED1FFE704F016FC3649D84B0422029015
:1026A0001046029A04F030FC09A8554901804FE019
:1026B000E2E707A80178294805F003FE264805212E
:1026C00049040160FFE72548274905F02DFE002851
:1026D00016D1FFE7204801684A1E026000290ED18A
:1026E000FFE704F0EFFB2349C44B0422019010469E
:1026F000019A04F009FC09A84149018028E0E2E7B9
:102700001548052149040160144805F06FFEFFE7F4
:10271000124800688005002816D5FFE70E480168BA
:102720004A1E026000290ED1FFE704F0CBFB0F49DF
:10273000B24B042200901046009A04F0E5FB09A871
:102740002F49018004E0E3E709A800210180FFE7A9
:1027500009A800880AB010BD0C00002000540040F9
:1027600001060000010500000705000003AC000899
:1027700005A30008B8AB000869AB0008CDAA0008A3
:1027800099AC000810B58AB0024608AB18700791E2
:1027900006A80021017005AB1980079C0490204613
:1027A000039202910193FDF7EEFC019908800298D3
:1027B000049A1070FFE706A8007805A909888842E6
:1027C00014DAFFE7079806A90978405C08A9097898
:1027D000884205D1FFE706A8007809A9088009E02A
:1027E000FFE70698401C06A90870E4E709A8044919
:1027F0000180FFE709A8008800B20AB010BDC046FA
:10280000FFFF0000B0B581B001466A461070734802
:1028100040F2184200238352009A794BC45A05199A
:10282000641CC4522A75C05A062815DBFFE76B48A2
:102830007349415A4018807C0D280DD1FFE7674845
:102840006F49415A4018C07C0A2805D1FFE7634808
:10285000634901224254FFE760486949405A40F207
:102860000041884205DBFFE75C486549002242528F
:10287000FFE75A486249415A40180021017501B0EA
:10288000B0BDC04681B05549897C0029009007D071
:10289000FFE752484168009A51600068106004E008
:1028A0000020009908604860FFE701B07047C0460B
:1028B0004A48807C7047C04680B586B04748484942
:1028C000405C002861D0FFE746480A210170434878
:1028D00014304549FDF743FC05900598002807D1C1
:1028E000FFE73E4814304149FDF739FC0590FFE70A
:1028F000002004900598002806D0FFE705983C4981
:10290000FDF72DFC0490FFE70598002820D0FFE795
:10291000049800281CD0FFE7364801684A1C026072
:10292000052914D1FFE733480021016004F0CAFAF9
:102930000499059A891A891C019200912E492F4BFE
:10294000022203901046039A04F0DEFAFFE7FFE745
:1029500000F05EF8214822490022425428494252A0
:1029600028480078042805DCFFE72749002003F009
:102970006FFAFFE723480078042805DCFFE72148C9
:102980000178491C0170FFE7FFE7204801784A1CE5
:10299000027064291FDBFFE71C48002101700F480B
:1029A000807C002805D0FFE70C48817C491E81749B
:1029B000FFE70C48007800280CD0FFE709480178B1
:1029C000491E01700078002803D1FFE700F012FCD7
:1029D000FFE7FFE7FFE706B080BDC0464C080020D8
:1029E0001A0400000800002054B000085BB0000882
:1029F00090A50008680C0020F5B0000805A30008A9
:102A000014040000B80D002020B000084808002081
:102A100070B5C2B041A80021018040AA11803FAA30
:102A200011803D913C913B910088FD49081814307C
:102A3000FC49FDF794FB3090309800280AD1FFE75D
:102A400041A80088F64908181430F749FDF787FBBC
:102A50003090FFE73098002800D1C0E3309803F0B1
:102A6000B5FB002801D1FFE7B9E3FFE7309841A9A2
:102A70000988405C00212C282F910FD0FFE741A846
:102A8000008840F200410122002388422E932D92BB
:102A900001DB2E982D902D982F90FFE72F98C007DF
:102AA000002805D0FFE74198401C41A90880DDE7D8
:102AB0004198401C41A90880088840F200418842A2
:102AC00001DBFFE78BE3309841A90A888318805C1B
:102AD0000A22144644435878201840F21023C01AA2
:102AE00034ACE0724198801C088030980D884619FB
:102AF000405D1546454370782818C01A20734198E8
:102B0000801C088030980D884619405D42437078DB
:102B10001018C01A60734198801C0880FFE7309835
:102B200041A90988405C00212C282C910FD0FFE797
:102B300041A8008840F200410122002388422B93E3
:102B40002A9201DB2B982A902A982C90FFE72C9848
:102B5000C007002805D0FFE74198401C41A9088024
:102B6000DDE74198401C41A90880088840F20041F7
:102B7000884201DBFFE732E3309841A90988405CD5
:102B8000412804D0FFE7A6480021817427E330984C
:102B900041A90988405C412804D1FFE734A80121FC
:102BA0000176FFE7FFE7309841A90988405C0021E2
:102BB0002C2829910FD0FFE741A8008840F200415E
:102BC0000122002388422893279201DB289827902E
:102BD00027982990FFE72998C007002805D0FFE72C
:102BE0004198401C41A90880DDE74198401C41A95B
:102BF000088040A800210180FFE7309841A909889A
:102C000040AA12888918405C00212E2826910DD0F8
:102C1000FFE740A800880121002206282592249180
:102C200001DB2598249024982690FFE72698C0077A
:102C3000002805D0FFE74098401C40A90880DCE749
:102C400040A80088062801DBFFE7C8E20020359095
:102C50004099891E40AA11803FA90880FFE73FA83C
:102C6000008840A9098888421BDAFFE735986F4938
:102C7000FDF717FB3590309841A90A88531C0B804B
:102C8000805C3038FDF7DCFC3599239008462399A9
:102C9000FDF7AEFA3590FFE73F98401C3FA908804A
:102CA000DDE73FA800210180FFE7309841A90988AE
:102CB000405C00212C2822910FD0FFE741A800881A
:102CC00040F200410122002388422193209201DB3F
:102CD0002198209020982290FFE72298C007002892
:102CE0000DD0FFE7309841A90A88531C0B80805C07
:102CF0003FA90A88531C0B8031A98854D5E7419815
:102D0000401C41A90880088840F20041884201DB4C
:102D1000FFE764E23FA8008831A900220A54084670
:102D20001F9207F05EF93D913C903C983D99404BD5
:102D30001F9AFDF70DFC359A1E9010461D91FDF768
:102D4000C3FC1E9A1D9BFDF7E9FAFDF7D1FC3590F7
:102D5000309841A90988405C532806D1FFE735988F
:102D60000121C90748403590FFE7FFE7309841A9A6
:102D70000988405C00212C281C910FD0FFE741A856
:102D8000008840F200410122002388421B931A92DE
:102D900001DB1B981A901A981C90FFE71C98C0073B
:102DA000002805D0FFE74198401C41A90880DDE7D5
:102DB0004198401C41A90880088840F2004188429F
:102DC00001DBFFE70BE240A800210180FFE730981C
:102DD00041A9098840AA12888918405C00212E2840
:102DE00019910DD0FFE740A8008801210022062894
:102DF0001892179101DB1898179017981990FFE710
:102E00001998C007002805D0FFE74098401C40A94A
:102E10000880DCE740A8008806280BDBFFE7DEE13E
:102E20004C0800205BB0000854B0000800002041AE
:102E300000004E40002034904099891E40AA118025
:102E40003FA90880FFE73FA8008840A90988884279
:102E50001BDAFFE73498E649FDF723FA34903098FF
:102E600041A90A88531C0B80805C3038FDF7E8FBD1
:102E70003499169008461699FDF7BAF93490FFE791
:102E80003F98401C3FA90880DDE73FA80021018052
:102E9000FFE7309841A90988405C00212C28159152
:102EA0000FD0FFE741A8008840F200410122002333
:102EB00088421493139201DB149813901398159081
:102EC000FFE71598C00700280DD0FFE7309841A90B
:102ED0000A88531C0B80805C3FA90A88531C0B8016
:102EE00031A98854D5E74198401C41A908803FA8E2
:102EF000008831AA0023135410461291119307F051
:102F000070F83D913C903C983D99B74B119AFDF774
:102F10001FFB349A109010460F91FDF7D5FB109AC5
:102F20000F9BFDF7FBF9FDF7E3FB34903098129906
:102F30000A88805C572806D1FFE734980121C90729
:102F400048403490FFE7FFE7309841A90988405C8A
:102F500000212C280E910FD0FFE741A8008840F2F5
:102F600000410122002388420D930C9201DB0D9851
:102F70000C900C980E90FFE70E98C007002805D023
:102F8000FFE74198401C41A90880DDE74198401CBB
:102F900041A90880088840F20041884201DBFFE730
:102FA0001DE141A80088309900F05AFA3B903B9807
:102FB000642141433B91FFE7309841A90988405C77
:102FC00000212E280B910FD0FFE741A8008840F286
:102FD00000410122002388420A93099201DB0A98EA
:102FE000099009980B90FFE70B98C007002805D0BF
:102FF000FFE74198401C41A90880DDE74198401C4B
:1030000041A908800888309900F02AFA3B990818ED
:103010003B903B9834A908823B980D2242433B9257
:103020003B98724AB0FBF2F03B903B988873FFE705
:10303000309841A90988405C00212C2808910FD0C4
:10304000FFE741A8008840F20041012200238842A6
:103050000793069201DB0798069006980890FFE711
:103060000898C007002805D0FFE74198401C41A9F7
:103070000880DDE74198401C41A908803FA8002155
:103080000180FFE7309841A90988405C00212C2885
:1030900005910FD0FFE741A8008840F200410122CE
:1030A000002388420493039201DB04980390039861
:1030B0000590FFE70598C00700280DD0FFE730987E
:1030C00041A90A88531C0B80805C3FA90A88531CC5
:1030D0000B8031A98854D5E73FA8008831A9002288
:1030E0000A54084606F07DFFFDF702FB399041A81F
:1030F000008840F20041884201DBFFE76FE0FFE714
:10310000309841A90988405C00212C2802910FD0F9
:10311000FFE741A8008840F20041012200238842D5
:103120000193009201DB0198009000980290FFE764
:103130000298C007002805D0FFE74198401C41A92C
:103140000880DDE74198401C41A9088030980A8832
:103150008318805C0A22144644435878201840F2B1
:103160001023C01A34ACA0724198801C088030989B
:103170000D884619405D1546454370782818C01AD9
:1031800060724198801C088030980D884619405D17
:10319000424370781018C01A20724198801C088031
:1031A000A07BB42804DBFFE734A80021017616E0F9
:1031B00034980C490860359848603698087234A8ED
:1031C000427A4A72827A8A72C27ACA72379A0A73C9
:1031D000427B4A73807B88730A208874FFE742B081
:1031E00070BDC0464C08002000004E40BE020000EA
:1031F000000020410148002101707047B80D0020F7
:1032000087B0024606AB188005910020049003A900
:103210000880069B0B800490FFE7059803A90988A6
:10322000405C0021002802910FD0FFE703A800882E
:1032300040F200410122002388420193009201DB09
:103240000198009000980290FFE70298C0070028BC
:1032500000D102E1059803A90988405C302807DB0A
:10326000FFE7059803A90988405C3A281CDBFFE7C3
:10327000059803A90988405C412807DBFFE705980A
:1032800003A90988405C47280EDBFFE7059803A9DE
:103290000988405C612800DAD9E0059803A909880B
:1032A000405C662800DDD2E0049800010490059897
:1032B00003A90988405C312804D1FFE70498401C29
:1032C0000490FFE7059803A90988405C322804D1DF
:1032D000FFE70498801C0490FFE7059803A909887C
:1032E000405C332804D1FFE70498C01C0490FFE73A
:1032F000059803A90988405C342804D1FFE70498A5
:10330000001D0490FFE7059803A90988405C352853
:1033100004D1FFE70498401D0490FFE7059803A936
:103320000988405C362804D1FFE70498801D04908A
:10333000FFE7059803A90988405C372804D1FFE717
:103340000498C01D0490FFE7059803A90988405C14
:10335000382804D1FFE7049808300490FFE7059867
:1033600003A90988405C392804D1FFE70498093093
:103370000490FFE7059803A90988405C412807D01D
:10338000FFE7059803A90988405C612804D1FFE79D
:1033900004980A300490FFE7059803A90988405C67
:1033A000422807D0FFE7059803A90988405C6228F6
:1033B00004D1FFE704980B300490FFE7059803A9B8
:1033C0000988405C432807D0FFE7059803A90988CE
:1033D000405C632804D1FFE704980C300490FFE7B9
:1033E000059803A90988405C442807D0FFE70598A1
:1033F00003A90988405C642804D1FFE704980D30D4
:103400000490FFE7059803A90988405C452807D088
:10341000FFE7059803A90988405C652804D1FFE708
:1034200004980E300490FFE7059803A90988405CD2
:10343000462807D0FFE7059803A90988405C66285D
:1034400004D1FFE704980F300490FFE700E004E0A8
:103450000398401C03A90880DFE6049807B0704772
:1034600087B0024606AB188005910020049003A99E
:103470000880069B0B800490FFE7059803A9098844
:10348000405C0021002802910FD0FFE703A80088CC
:1034900040F200410122002388420193009201DBA7
:1034A0000198009000980290FFE70298C00700285A
:1034B00021D0FFE7059803A90988405C302814DB78
:1034C000FFE7059803A90988405C39280DDCFFE770
:1034D00004980A2141430491059803A90988405C96
:1034E000049940183038049000E004E00398401C30
:1034F00003A90880C1E7049807B0704780B504F0BD
:1035000047F8FFE7FEE7000080B584B02C482D495E
:1035100005F0E9FF00280FD0FFE703F0D3FC2A49AC
:103520002A4B022203901046039A03F0EDFC244834
:10353000244905F0C8FFFFE721487B4905F0D3FF88
:1035400000280FD0FFE703F0BDFC2149F04B022219
:1035500002901046029A03F0D7FC1948724905F010
:10356000B2FFFFE71B48174905F0BDFF00280FD049
:10357000FFE703F0A7FC1849E54B02220190104633
:10358000019A03F0C1FC13480E4905F09CFFFFE7C8
:103590001048654905F0A7FF00280FD0FFE703F0AA
:1035A00091FC0E49DA4B022200901046009A03F07B
:1035B000ABFC08485C4905F086FFFFE704B080BD1E
:1035C0000038014003070000A4A4000805A3000878
:1035D0005AA4000800440040CAA400087FA40008C0
:1035E00080B584B03648012142F200020390029176
:1035F000029B01921A46019B04F0BBFC00210322AE
:103600000398019B04F0FDFC0398019904F078FCF9
:10361000BB483821029A425404B080BD80B588B0BE
:1036200001F08CFFFFF7DCFF02F0DEFE00F082F815
:1036300022490420079003F067FC214842F2000170
:103640000690059104F05CFC40F2E830FDF71EFFA7
:103650001C49079803F058FCA94801680968E12251
:10366000520201230490184603911146039A0293D3
:103670009047049801680968002042F28052019145
:103680001146019A90471049079803F03DFC0698AF
:10369000059904F03DFCFDF729FCFDF737FFFDF728
:1036A00033FF00F059F801F047F8FDF78DFCFEF705
:1036B0003FFB02980499087408B080BD39A5000842
:1036C0000008004849A500082EA5000880B58AB06A
:1036D000154805F087FB1548029005F017FD03A873
:1036E000019005F03DFE12480199088000204880B5
:1036F000888014220592C880029805F081FD01207F
:10370000029900900846009905F002FE029800997F
:1037100005F0F4FD029805F069FD1020022105F086
:103720000BF90AB080BDC04601070000000400404C
:103730000F0E0000F548024901600249C160704760
:10374000BCA00008B0A0000880B504F051FA3420F5
:1037500004F0BAF980BD000010B58EB0E7480068EB
:10376000E949884222D0FFE703F0ACFB6749E54B0B
:1037700002220C9010460C9A03F0C6FBE3483F214E
:10378000002242544021634B43524221624B435238
:103790004421624B43523E215F2343544F21012376
:1037A00043544A2142522821425446E0D9480068F5
:1037B000D6493F228854D84800683D2288540DA835
:1037C00000210170FFE70DA80078042811DCFFE755
:1037D0000DA801788900D64A895800784000CB4A64
:1037E000101840228152FFE70D98401C0DA9087067
:1037F000E9E744480068C5494F228854885C00289E
:1038000006D0FFE7C1484F21405C022805DBFFE7F7
:10381000BE484F2101224254FFE7C1480068BB491E
:103820004A228852885A3849884205D1FFE7B7486A
:103830004A2100224252FFE7FFE7B4483C2101221F
:1038400042543C3000218174C089052805DBFFE724
:10385000AE484A21415A418403E0AC4800214184EA
:10386000FFE703F02FFBA9493C228A5C3C318B7CAB
:10387000019300922A4AA34B02240B9020460A91FE
:1038800011460B9A0993089403F03EFB03F01AFBD0
:103890000A998A88CB880C89029401930092214965
:1038A000089A07901046079A099B03F02DFB03F036
:1038B00009FB0A99CA7800921B49089A069010469B
:1038C000069A099B03F020FB03F0FCFA0A994A7858
:1038D00000921649089A05901046059A099B03F034
:1038E00013FB03F0EFFA0A99CA8900921049089A6B
:1038F00004901046049A099B03F006FB0EB010BD1D
:103900008811002024FC0008FFFF0000B3AE00086F
:1039100005A30008102700001E280000B2250000A3
:103920004BAF000823AF0008A0AF000880AF00082D
:10393000C4AF000880B58EB00CA8002101700BA8A0
:1039400005210170FFF700FFFFE70BA800780028B2
:103950001AD0FFE7694804F0C5F8002812D0FFE745
:1039600003F0B0FA7349674B022209901046099A96
:1039700003F0CAFAC820FDF789FD0B98401E0BA979
:10398000087000E000E0E0E70BA80078012800DA0A
:10399000A0E003F097FA5A495A4B022208901046C9
:1039A000089A03F0B1FA5548574904F035F9002850
:1039B00005D0FFE70C98401C0CA90870FFE753489E
:1039C0003C21415C524804F027F9002805D0FFE76C
:1039D0000C98401C0CA90870FFE70AA80021017090
:1039E000FFE70AA8007804281DDCFFE70AA8007892
:1039F00081004F4A89184000444A10184022805ADA
:103A000007900846079904F007F9002805D0FFE75A
:103A10000C98401C0CA90870FFE7FFE70A98401CAF
:103A20000AA90870DDE739483F21415C394804F0B4
:103A3000F3F8002805D0FFE70C98401C0CA908708B
:103A4000FFE732483D21415C334804F0E5F80028A7
:103A500005D0FFE70C98401C0CA90870FFE72B4825
:103A60004E21415C2D4804F0D7F8002805D0FFE72F
:103A70000C98401C0CA90870FFE724484A21415AC1
:103A8000274804F0C9F8002805D0FFE70C98401C2F
:103A90000CA90870FFE70CA80078002819D1FFE7EF
:103AA00003F010FA0CA909781E4A1F4B0029069052
:103AB00005910493039201D0049803900398019018
:103AC0000598009019490F4B0220069A03F01CFA42
:103AD000FFE7FFE704F000F80BA80078002804D106
:103AE000FFE70DA80121017003E00C980DA90870F3
:103AF000FFE70DA800780EB080BDC04600FC0008AE
:103B0000F1AF000805A30008EFCDAB5688110020E7
:103B100004FC00081CFC000820FC000828FC00082D
:103B20002CFC00082BA3000878AE0008F2AE0008B9
:103B300008FC00087DAE000880B58AB0324805F068
:103B400051F9324805F04EF93148012140F2001296
:103B500008900791069204F071F940F2002008994C
:103B6000059008460799059A04F068F9022008991B
:103B7000049008460499079A069B04F0FAF903207A
:103B80000899039008460799039A069B04F039FAAE
:103B900008980499079A059B04F0EBF9089807998F
:103BA000039A059B04F02DFA1A481B490022029043
:103BB000019204F09BFA722302980199019A04F091
:103BC000E9FB029804F087FB0298079904F060FA79
:103BD00012480990FFE70F48114904F0A5FB0021A6
:103BE0000028009107D0FFE70998411E0991411E66
:103BF00088410090FFE70098C007002801D0FFE748
:103C0000E9E70AB080BDC0461205000015070000B4
:103C10000004004800540040A0860100FFFF0F0090
:103C20000106000080B582B0014601AA108010880C
:103C3000009100F047FB02B080BD000080B5AEB03F
:103C4000CF482B904F212A900846299100F005FB80
:103C50002CA908700878FC221040801C299A289012
:103C60001046289B2791194600F003FB2A20269036
:103C700000F0F3FA2799087008780F221040C0303E
:103C8000269A25901046259900F0F3FA4E202490AC
:103C900000F0E3FA279908700878C8221040353000
:103CA000249A23901046239900F0E3FA052001217D
:103CB00000F0DFFA0620229000F0CFFA2799087072
:103CC0000878F8221040811C2298219200F0D1FA45
:103CD00007209C2100F0CDFA0820209000F0BDFACA
:103CE000279908700878F02210400830209A1F9019
:103CF00010461F9900F0BDFA092000211E9100F026
:103D0000B8FA0A201E9900F0B4FA0D201D9000F0B8
:103D1000A4FA279908700878EF2210401D9A1C9089
:103D200010461C9900F0A5FA04201B9000F095FAAB
:103D3000279908702C9880221043219A10401B9BD1
:103D40001A9018461A9900F094FA2A982B90FFE7D7
:103D50002B98401E2B9001F011FD1B2000F07DFAE6
:103D60002CA908700878400700280BD5FFE703F05E
:103D7000A9F88449D64B022219901046199A03F0EB
:103D8000C3F803E06420FDF781FBE1E7742018909D
:103D900000F063FA2CA908700878E0221043189A02
:103DA00017901046179B1691194600F062FA3E20B4
:103DB000159000F052FA169908700878B822104051
:103DC000411C1598149200F054FA3F20139000F013
:103DD00044FA169908700878149A1040139B1290B0
:103DE0001846129900F045FA4020119000F035FA7B
:103DF000169908700878872210403830119A109070
:103E00001046109900F035FA1B200F9000F025FAAB
:103E1000169908700878802210430F9B0E90184660
:103E20000E990D9200F025FA3B200C9000F015FA47
:103E30001699087008788F22104030300C9A0B9039
:103E400010460B9900F015FA65200A9000F005FA6B
:103E50001699087008780D9A104050300A9B099006
:103E60001846099900F005FA6620182100F001FAB9
:103E700067200F9900F0FDF96820162100F0F9F98C
:103E80006920089000F0E9F9169908700878F02286
:103E900010400830089A07901046079900F0E9F999
:103EA0006220502100F0E5F97F205521069100F0B5
:103EB000E0F953200D9905900846059900F0D9F9CD
:103EC00081203A2100F0D5F982203521049100F0BB
:103ED000D0F983202421039100F0CBF984201F2105
:103EE000029100F0C6F93420139900F0C2F9049849
:103EF000139900F0BEF92920002100F0BAF92C2016
:103F00005F2100F0B6F92B20602100F0B2F91920F2
:103F10003021019100F0ADF91D20972100F0A9F9A1
:103F20001E20039900F0A5F90298059900F0A1F967
:103F30002020019900F09DF92120022100F099F93B
:103F40002220152100F095F9069800F086F91699BF
:103F500008700878F8221040811D069800F089F951
:103F60002B98002804D1FFE72DA80021017003E061
:103F70002DA801210170FFE72DA800782EB080BD8B
:103F8000FF040000F5AD000880B584B00F2002905A
:103F900000F063F903A908700878E021084002994D
:103FA00001900846019900F064F9012004B080BD39
:103FB00080B592B01E200C9000F04FF910A9088037
:103FC0000878702210430C9A0B9010460B9B0A91B4
:103FD000194600F04EF92420099000F03EF90A99A4
:103FE000088008887F221040099A08901046089996
:103FF00000F03FF93120079000F02FF90FA9087069
:104000000878E0221040801D079A06901046069B13
:104010000591194600F02DF93220049000F01DF9A9
:104020000599087008783F221043049A03901046BF
:10403000039900F01EF90EA800210170FFE70EA8F9
:10404000007809282FDCFFE70A20FDF71FFA02207D
:1040500000F003F910A90880032000F0FEF80FA972
:10406000087010980002097840180DA90880088887
:104070001549884201D0FFE710E002F023FF10A9A4
:1040800009880FAA1278019200911049104B022260
:1040900002901046029A02F037FF04E00E98401C8E
:1040A0000EA90870CBE70EA800780A2804D1FFE714
:1040B00011A80021017003E011A801210170FFE7A0
:1040C00011A8007812B080BD544B000090A90008E0
:1040D00005A3000880B58AB0014609AA107088209F
:1040E0000791069200F0B9F808A9087006980178BF
:1040F000002919D1FFE708A80178BF2211408822C2
:104100000590104600F0B5F88720049000F0A5F85F
:1041100005990870087808221043049A0390104605
:10412000039900F0A6F818E008A80178402211438E
:1041300088220290104600F09CF88720019000F041
:104140008CF8029908700878F7221040019A0090C4
:104150001046009900F08DF8FFE701200AB080BDFD
:1041600080B592B00E200E9000F077F810A908707C
:104170000878DF2210400E9A0D9010460D9B0C918E
:10418000194600F076F80120FDF780F976200B90B3
:1041900000F063F80C9908700878022210430B9A1B
:1041A0000A9010460A9900F064F8FFF747FD0FA93E
:1041B000087041200990089100F04FF80C990870A0
:1041C000109890221043D0221040099A0790104670
:1041D000079900F04EF84320069000F03EF80C9945
:1041E000087008783F221040069A059010460599FD
:1041F00000F03FF82D20049000F02FF80C99087083
:1042000008789F221040049A03901046039900F00A
:1042100030F84220642100F02CF83B20029000F09E
:104220001CF80C990870087880221043029A0190BB
:104230001046019900F01DF808980178002904D172
:10424000FFE711A80021017003E011A8012101700E
:10425000FFE711A8007812B080BD80B582B001469A
:1042600001AA107010780091FDF722FEC0B202B0D2
:1042700080BD10B586B00A46034605AC207004A880
:104280000170217800780390084603990292019307
:10429000FEF74AF906B010BD80B584B0014603AA06
:1042A00010801088064A105C0F2210408522029070
:1042B0001046029A01911146FFF7DBFF04B080BD62
:1042C00072B1000880B588B0014606AA1080108837
:1042D000002804D1FFE707A80021017030E0FFF7B4
:1042E00053FE06A909880522B1FBF2F104AA118048
:1042F000049940F2F053C91A89B203900846029219
:10430000FFF7CAFF029801788920FFF7B2FF8820E3
:104310000190FFF7A2FF05A90870087870210840F6
:1043200002994A780F231A4080188030019A009031
:1043300010460099FFF79DFF07A801210170FFE7D4
:1043400007A8007808B080BDF0B582B0014601AA88
:10435000108010880A23B0FBF3F010806A461080AA
:104360001088B0FBF3F41D466543401BA14C205C54
:10437000A14D28701088B0FBF3F010801088B0FBBE
:10438000F3F61F467743C01B205C68701088B0FBB3
:10439000F3F010801088B0FBF3F61F467743C01B84
:1043A000205CA8701088B0FBF3F010801088114AD0
:1043B0004243114810180122D041104A90420CD3B8
:1043C000FFE7684600880A21B0FBF1F25143401A2A
:1043D000D649085CD649C87004E0D448807AD449EC
:1043E000C870FFE7D24841787F221140417002B087
:1043F000F0BDC046CDCCCCCC989999199999991912
:10440000F0B581B001466A46108010880A23B0FBDF
:10441000F3F41D466543401BC44C205CC44D28701A
:104420001088B0FBF3F010801088B0FBF3F61F4645
:104430007743C01B205C68701088B0FBF3F01080DD
:104440001088B0FBF3F61F467743C01B205CA870B2
:104450001088B0FBF3F010801088B0FBF3F25343E8
:10446000C01A205CE87001B0F0BDC04680B582B0D3
:10447000B0480088002805D0FFE7AE480188491EF3
:10448000018053E0A848007800281ED0FFE7334899
:104490000078002810D0FFE702F014FD30497E4B71
:1044A000022201901046019A02F02EFD7B4800780E
:1044B000012100F0A3F802E000F090F8FFE72748A0
:1044C00001780122514001702FE075484E21405C77
:1044D0000628009025D80098810001A251188F4627
:1044E00000F01CB800F01DB800F01BB800F019B8BF
:1044F00000F004B800F00CB800F00DB868483F2197
:10450000415C490040184021405AFFF71DFF0BE075
:1045100000F04CF808E000F03DF805E000F02EF85F
:1045200002E000F05BF8FFE7FFE7FFE75C484E21A1
:10453000405C042808D1FFE70920C00640F20011C2
:10454000012203F0EDFC07E00920C00640F2001153
:10455000002203F0E5FCFFE702B080BDA00D0020C3
:1045600027AE000871484178EF4AD170C17C917044
:10457000417B5170C07B10707047C0466B484178DA
:10458000E94AD170817D9170417C5170407B1070FF
:104590007047C0466548417CE34AD170817C917088
:1045A000C17C5170407B10707047C0465F48817A73
:1045B000DD4AD170C17D9170017E5170407E1070D6
:1045C0007047C04659484179D74AD170C17B917034
:1045D00001785170407D10707047C0465348817A11
:1045E000D14A1170817A5170817A9170807AD0703D
:1045F0007047C04694A000089B0D002010B588B0FD
:104600000A46034607AC207006A801700592049381
:10461000039402F057FC03990A7800921D491E4B3F
:10462000022202901046029A02F06EFC07981B4983
:1046300008700398017802290ADCFFE707A80078D0
:104640004000B64908184021405AFFF77DFE1BE0A4
:1046500007A80078032803D1FFE7FFF7A7FF12E0C0
:1046600007A80078042803D1FFE7FFF793FF09E0CC
:1046700007A80078052803D1FFE7FFF77FFF00E0D8
:1046800006E0FFE7FFE7FFE7069827490870FFE726
:1046900008B010BD54AE000805A300084510002066
:1046A00088110020B0B584B0014603AA10701E48DE
:1046B0000078002801D0FFE733E003A801786422E6
:1046C000B1FBF2F102AB19700078197814464C4333
:1046D000001B0A2190FBF1F001AC20700398029DB1
:1046E0006A43801A019A5143401A69460870087853
:1046F0000E49085C8C4A10702078085C507018785D
:10470000085C9070087BD0701878002805D1FFE70E
:104710000648807A84498870FFE706480A210180AC
:10472000FFE704B0B0BDC0464010002094A00008D0
:104730009B0D00206E0F002010B588B0324801217B
:1047400041F2000207900691069B05921A46059BCE
:1047500003F00FFC42F20000079904900846069906
:10476000069A049B03F005FC44F2000007990390AD
:1047700008460699069A039B03F0FBFB48F20000EB
:104780000799029008460699069A029B03F0F1FBEE
:10479000FF2307980699069A03F0EBFB0920C00651
:1047A000022301900699069A03F0E3FB40F20013FE
:1047B00001980699069A03F0DCFB01980699069A7F
:1047C000029B03F0D6FB01980699069A059B03F01D
:1047D000D0FB40F6000301980699069A03F0C9FB46
:1047E0004D4802990160039A0260049B0360059C96
:1047F0000460FEF76BFF0548FFF702FE40F2F4107D
:10480000FCF744FE08B010BD00040048B8220000C8
:1048100010B582B0014601AA1070074803686C46C3
:10482000238063781B0223801278009B134323802C
:104830002288026002B010BD1404004880B582B026
:1048400004F0D0FB0190344848F20001016044F2CA
:104850000001016042F20001016041F200010160CB
:104860002E48408C012801D1FFE753E02C48017805
:10487000491C0170007829494F22895C884201DA7D
:10488000FFE747E027480178274A515C0090084637
:10489000FFF7BEFF00980178002905D1FFE7234804
:1048A00048F20001016020E01E480078012805D18F
:1048B000FFE71E4844F20001016015E01948007846
:1048C000022805D1FFE7194842F2000101600AE021
:1048D00014480078032805D1FFE7144841F200018D
:1048E0000160FFE7FFE7FFE7FFE70E480178491C9B
:1048F00001700078042804DBFFE70A4800210170FA
:10490000FFE707480078052804DBFFE7044800219B
:104910000170FFE702B080BD180400488811002034
:10492000A10D00209A0D00209B0D002028040048B6
:1049300080B592B0E9485021405C002800D0C3E027
:104940000920C006022100221190109203F0E8FA1B
:1049500040F200111198109A03F0E2FADF483C216E
:10496000405C05280F9042D80F98810001A2511891
:104970008F46C04600F031B800F032B800F006B8FB
:1049800000F011B800F033B800F020B80920C006DC
:104990000221012203F0C4FAFFF7E4FDCF484E21C3
:1049A0000022425424E00920C00640F200110122F6
:1049B00003F0B6FAC9484C21415A0E900846FFF759
:1049C000C3FC4E2000210E9A115411E0FFF7EEFDBA
:1049D000C2484E21002242540AE0FFF747FD07E09B
:1049E000BE484E2100224254FFF7ECFD00E0FFE7F5
:1049F000BA483C21405C00280ED1FFE7B7484E2161
:104A0000405C002808D1FFE7BA4800210170BA488D
:104A10000170BA4801703FE0B64800210170B64805
:104A20000170B6480170AD482021405C401E052849
:104A30000D902FD80D98810001A251188F46C046C5
:104A400000F00AB800F00EB800F010B800F012B88C
:104A500000F016B800F01AB8A64801210170A64867
:104A6000017018E0A4480121017014E0A14801215F
:104A7000017010E0A04801210170A04801700AE017
:104A80009C48012101709D48017004E09B48012170
:104A9000017000E0FFE7FFE7984802780920C006B0
:104AA00048F200010C9003F03BFA9348027840F67C
:104AB00000010C9803F034FA8E48027841F20001AC
:104AC0000C9803F02DFAF3E085480078C007002821
:104AD00000D1D8E083480068002827D1FFE781484B
:104AE0000168491C01600920C00648F2000101224A
:104AF0000B9003F015FA40F6000100200B9A0A9083
:104B000010460A9A03F00CFA41F200010B980A9A37
:104B100003F006FA02210B980A9A03F001FA40F218
:104B200000110B980A9A03F0FBF9ABE06D4800689E
:104B3000012825D1FFE76B480168491C0160092065
:104B4000C00648F2000100220990089203F0E8F93B
:104B500040F600010122099803F0E2F941F2000158
:104B60000998089A03F0DCF902210998089A03F0E1
:104B7000D7F940F200110998089A03F0D1F980E0C2
:104B800058480068022825D1FFE756480168491CAB
:104B900001600920C00648F2000100220790069239
:104BA00003F0BEF940F600010798069A03F0B8F941
:104BB00041F200010122079803F0B2F9022107989F
:104BC000069A03F0ADF940F200110798069A03F037
:104BD000A7F955E043480068032825D1FFE741487D
:104BE0000168491C01600920C00648F2000100224A
:104BF0000590049203F094F940F600010598049A98
:104C000003F08EF941F200010598049A03F088F947
:104C100002210122059803F083F940F20011059862
:104C2000049A03F07DF92AE02E480068042825D173
:104C3000FFE72C48002101600920C00648F200026D
:104C4000039002911146029A03F06AF940F60001BE
:104C50000398029A03F064F941F200010398029A62
:104C600003F05EF902210398029A03F059F940F229
:104C700000110122039803F053F9FFE7FFE7FFE774
:104C8000FFE7FFE7FFE71848018801900846FFF7B4
:104C9000B7FB01980168154A891801600168144A38
:104CA000914204D3FFE7104800210160FFE7FFE7CE
:104CB0000B480178491C01700078C00700280BD10F
:104CC000FFE70648408C022805DBFFE70348418CDC
:104CD000491E4184FFE7FFE712B080BD8811002024
:104CE000AD0D0020A40D0020A80D002057040000E9
:104CF00010270000A20D002010000020AC0D0020A5
:104D000070477047B0B598B0F84800210170F84876
:104D1000F849FBF724FA002805D0FFE7F6485021B0
:104D200001224254FFE7F4485021405C00280ED095
:104D3000FFE7F2480068002808D0FFE7EF48016865
:104D4000491E01606420FDF779FAFFE7FFE7E848B4
:104D5000EB49FBF704FA002800D174E2E44840F282
:104D60000041405A0B2800DA6DE2E148E549FBF7C3
:104D7000F6F91790179800282DD0FFE7E248002198
:104D8000016017990420FEF76BFB16A90880D8482C
:104D900040F20042825A0A3AD2B206911146FCF71A
:104DA0006BFA15A908800698028809888A4211D0F2
:104DB000FFE702F087F816A9098815AA1288019260
:104DC0000091D249D24B022205901046059A02F07A
:104DD0009BF838E200E036E214A800210170C448D4
:104DE000CC49FBF7E1F91390FFE71398002800D1B5
:104DF00019E21398C849FBF7B2F9002802D0FFE77F
:104E000001F0CEFD1398C549FBF7A9F9002805D09C
:104E1000FFE7B9483C2103224254FEE11398C04900
:104E2000FBF79DF9002805D0FFE7B3483C2102229B
:104E30004254F2E11398BB49FBF791F9002805D0E1
:104E4000FFE7AD483C2105224254E6E11398B649FC
:104E5000FBF785F9002810D0FFE7FC483C21405CB7
:104E6000012809D0FFE7F9483C2101224254149857
:104E7000401C14A90870FFE7CFE11398F549FBF730
:104E80006EF9002805D0FFE7F0483C21002242548B
:104E9000C3E11398F049FBF762F9002817D0FFE748
:104EA00013990620FEF7DCFA12A908800888E74962
:104EB0004022895A884209D0FFE71298E3494022EC
:104EC00088521498401C14A90870FFE7A5E11398B4
:104ED000E249FBF744F9002817D0FFE713990620B1
:104EE000FEF7BEFA11A908800888D8494222895ADB
:104EF000884209D0FFE71198D44942228852149879
:104F0000401C14A90870FFE787E11398D449FBF708
:104F100026F9002817D0FFE713990620FEF7A0FA1C
:104F200010A908800888C9494422895A884209D0B2
:104F3000FFE71098C549442288521498401C14A9D0
:104F40000870FFE769E11398C649FBF708F90028E4
:104F500038D0FFE713990920FEF782FA0FA90880DD
:104F6000088803F04DFA0EA908700878FF2828D0A9
:104F7000FFE70FA80088B5494C22895A884220D003
:104F8000FFE70F98B1490A463C3210820E98D07064
:104F90003C20085C032813D1FFE7AC484C21415A60
:104FA00004900846FEF73EFE3D200499085CFDF79C
:104FB00045F90FA9098803900846FFF7C5F9FFE7EF
:104FC000FFE72AE11398A849FBF7C9F8002816D093
:104FD000FFE713990420FEF743FA0DA908709B48D8
:104FE0003D22805C0978884208D0FFE70D989749F8
:104FF0003D228854885CFDF721F9FFE70DE1139805
:105000009A49FBF7ACF8002805D0FFE78F484E21FE
:105010000022425401E113989549FBF7A0F80028BB
:1050200051D0FFE713990820FEF71AFA0CA908706F
:1050300013990C20FEF714FA0BA9087090489621DA
:10504000405C00280CD1FFE70C988D4908700B9844
:1050500048700120887096200A5C521C0A5431E086
:105060000AA800210170FFE70AA800781D2828DCA3
:10507000FFE70AA80078052141438148401880785D
:10508000002818D1FFE70C980AA90A7805231C46C6
:1050900054437B4A10550B980C781D4665435419B0
:1050A000607008784343D018012181709620115C0C
:1050B000491C115405E0FFE70A98401C0AA9087032
:1050C000D2E7FFE7A9E013986A49FBF748F8002800
:1050D00000D183E013990720FEF7C2F909A90870EF
:1050E00066489621405C00282DD11FE0710F0020FA
:1050F0003400002025A100088811002014000020A1
:1051000019A1000841A100083C1000202BA20008B2
:1051100005A3000829A300081DA1000895A1000807
:105120009DA1000861A1000882A1000809985349C7
:105130000870002048700122CA70087196200A5C2D
:10514000521C0A5449E008A800210170FFE708A892
:1051500000781D2840DCFFE708A8007805214143BE
:1051600046484018C078002830D1FFE708A80078EA
:10517000052141434148405C002827D1FFE708A8AA
:105180000078052141433D484018407800281DD152
:10519000FFE7099808A90A7805231C465443374AB3
:1051A000105508781C4644431019002444700878B0
:1051B0001D46454350190125C57008784343D01852
:1051C00004719620115C491C115405E0FFE7089812
:1051D000401C08A90870BAE7FFE71EE013982649AB
:1051E000FAF7BDFF002817D0FFE713990B20FEF751
:1051F00037F907A90880CB484A22805A0988884293
:1052000009D0FFE70798C7494A2288521498401CE2
:1052100014A90870FFE700E0FFE70D490020FAF746
:10522000C3FF1390E1E514A8007800280AD0FFE737
:10523000BC485021405C002803D1FFE7FEF77AFB11
:10524000FFE7FFE7FFE718B0B0BDC04688110020B8
:1052500029A3000878A100082CA1000833A10008A8
:105260003AA100084BA1000846A1000872A100085D
:105270008CA100086AA1000855A100086C0C002050
:10528000030D0020F0B5A3B001F01CFE8049009191
:10529000804A814B02241590204614911146159A9C
:1052A00001F032FE7D491498FAF759FF00283AD0F0
:1052B000FFE777490520FEF7D3F822A908700878A0
:1052C0000228139008D0FFE71398032812D0FFE7B5
:1052D00013980E2819D024E001F0F4FD72496E4BAA
:1052E000022212901046129A01F00EFE8D48012102
:1052F000417417E001F0E6FD6A49674B0222119004
:105300001046119A01F000FE0CE001F0DBFD64494B
:10531000614B022210901046109A01F0F5FD01F049
:1053200049FBFFE7FFE75A486049FAF718FF0028F2
:105330004FD0FFE7564806210F9008460F99FDF71A
:105340005FFF21A908701EA8002101811F911E91F5
:105350000F998A1D282329240E9010460E991A466B
:105360002346FBF7D7FF002832D0FFE700201EA915
:10537000FDF746FF1DA9087021A802780B780D9053
:1053800010460C911946FDF7CFF81CA908800B9127
:1053900001F098FD0D990A780C9B1C780B9D2E88C6
:1053A000434F4449002E0A900992089407910697AA
:1053B00001D00798069006980290089801900998E5
:1053C00000903D49E44B02200A9A01F09DFDFFE761
:1053D000FFE72F483949FAF7C2FE002830D0FFE72F
:1053E0002B490620FDF70CFF1BA908700878FCF775
:1053F0005FFD1AA9088008883149884211D0FFE76B
:1054000001F060FD1BA909781AAA12780192009197
:105410002D49D14B022205901046059A01F074FDEA
:105420000DE001F04FFD1BA9097800912549CA4BF9
:10543000022204901046049A01F066FDFFE7FFE7A0
:1054400013482249FAF78BFE00280CD0FFE71049D9
:105450000720FEF705F819A908700878FCF7EEFE9A
:1054600018A90880FFE70A481949FAF778FE0028CA
:105470000BD0FFE706490820FDF7F2FF17901798B9
:10548000FCF7CAFE16A90880FFE723B0F0BDC046AE
:105490004004002014A4000805A3000825A3000868
:1054A00032A3000882A300085BA3000815A300082C
:1054B0002BA300082EA30008DCA300080EA30008FD
:1054C000FFFF000033A40008A9A3000806A30008FA
:1054D0001CA3000880B5FCF759F880BD80B5FEF725
:1054E00013F802F039F8FBF7ABFD80BD80B5FCF78F
:1054F00053FA9648C06840688047022001F09EFB3E
:1055000001280BD1FFE7022001F08EFB012001F002
:1055100059FC0548006805490880FFE700F0ACFE2B
:1055200080BDC046881100204C2401406C0F002033
:1055300080B5FFF7FDF9FCF7BBFE80BD80B50B48D9
:1055400003F050FC0A4803F04DFC0A4803F04AFC03
:10555000094803F047FC094803F044FC40F20050BE
:1055600003F040FC062003F011FA80BD1105000095
:1055700012050000130500001605000009060000D2
:1055800010B594B071484C21405A7149884201D0FD
:10559000FFE7D9E04520FEF760FE13A9087046201A
:1055A0001091FEF75AFE12A908700F9101F08AFCC3
:1055B00010990A780F9B1C78019400926549664BFC
:1055C00003220E9010460E9A01F09EFC109801786E
:1055D0000722114011AA11700178090600292DD463
:1055E000FFE713A800784006002827D5FFE75B48AF
:1055F0000188491C018088B250281EDBFFE757480C
:105600000021018051482821405C00280AD0FFE792
:105610004E482821002242544E2142541046FCF7A5
:105620000DFEFFE701F04EFC4D494B4B04220D905F
:1056300010460D9A01F068FCFFE785E0474800211D
:10564000018011A80078FB21084201D0FFE77BE030
:105650004720FEF702FE43490880088800020880C0
:10566000088848220C9010460B91FEF7F6FD0C9925
:1056700001430B9801804920FEF7EFFD3A4908806D
:1056800008880002088008884A220A90104609917A
:10569000FEF7E3FD0A990143099801804B20FEF7CC
:1056A000DCFD3249088008880002088008884C2206
:1056B000089010460791FEF7D0FD0899014307981E
:1056C00001804D20FEF7C9FD2949088008880002A5
:1056D000088008883322069010460591FEF7BDFD2C
:1056E0000699014305980180008801F07DFF21485B
:1056F0000188491C018088B205280EDBFFE71D48A0
:1057000000210180112001F045FF002804D0FFE7AF
:10571000112003F09DFBFFE7FFE701F0D3FB1149E8
:105720000988114A1288114B1B88114C2488039454
:105730000293019200911049074B032204901046F6
:10574000049A01F0E1FBFFE714B010BD88110020BE
:105750007616000023A8000805A30008AE0D00205F
:105760001AA90008380400203A0400203C04002054
:105770003E040020B00D00205BAD00087047000023
:1057800080B586B00590049103923A480190FFE7F6
:1057900001980078002803D1FFE700F031FFFFE710
:1057A000FFE7EFF31080012181F310880090059846
:1057B0000499039A00F008F80290009880F310888A
:1057C000029806B080BDC04680B58AB009900891A5
:1057D00007920898049009981821414325484018D9
:1057E00018300390039840690028029008D0FFE722
:1057F0000298012819D0FFE7029802282CD032E045
:10580000039800F049FF059005980799884203D254
:10581000FFE70020069007E0079806900398049998
:10582000079A00F0CAFFFFE720E0039800F034FF7A
:10583000059005980799884203D2FFE705980190E3
:1058400002E007980190FFE70198069003980499F9
:10585000069A00F0B2FF09E003980499079A00F055
:105860003AFF069002E000200690FFE706980AB093
:1058700080BDC046E40D00207047000080B584B0B4
:1058800002900298401E000E002803D0FFE701207E
:10589000039013E00298401E0A4908600020C143AB
:1058A000032201900846114600F0ECFF06480199DA
:1058B00001600648072202600391FFE7039804B0E5
:1058C00080BDC04614E000E018E000E010E000E019
:1058D00080B500F059F8FBF7CDFD80BD80B582B0F2
:1058E00020480168012211430160FFE71D4800685C
:1058F0008007002801D4FFE7F8E71B4801681B4A2E
:105900001140016001681A4A1140016015480168A0
:10591000184A11400160184801680F229143016044
:105920001648016840F203129143016001680122A8
:105930001304994301600168D3079943016010483B
:105940000168914301600F480021016001920091BC
:1059500003F0BEFB0198C006009903F007F802B0FF
:1059600080BDC04600100240041002400C00FF0839
:10597000FFFFC277FFFFF2FE2C1002403010024002
:1059800034100240081002400C480168491C0160B4
:105990000B480168491C01600A480168491C016004
:1059A00009480168491C016008480168491C0160F8
:1059B00007480168491C01607047C046701000200C
:1059C000D00D0020CC0D0020D80D0020C80D0020E7
:1059D000D40D002082B0014601AA1070009100F0A1
:1059E000F3FF000080B50748012103F09BFC01286C
:1059F00007D1FFE70348012103F08AFCFEF71EFFF1
:105A0000FFE780BD0004004080B594B01390129170
:105A1000139801286BD1FFE76748684940F20012EC
:105A200002F0AAFD1C210022119008461146109296
:105A300002F082FF5D4803F0D5F90920C00601217C
:105A400004220F900E910D9202F0F8F908200F99A0
:105A50000C9008460E990C9A02F0F0F902200F996A
:105A60000B9008460B990E9A0D9B02F082FA0320C8
:105A70000F990A90084610990A9A0D9B02F0C1FAF4
:105A80000F980B990E9A0C9B02F073FA0F981099CD
:105A90000A9A0C9B02F0B5FA494803F0A3F9EB48C7
:105AA000099003F0DDFC0998109903F0DAFD0998DC
:105AB000109903F0B2FD0998109903F08AFD12992C
:105AC000099803F061FC09980D9903F097FD099876
:105AD0000C9903F0B7FD099803F0ECFC0521099837
